{
  "transactions": [
    {
      "hash": "0xf3f594733a879f8145d52ee8e3b7e025c15a66f65e84bfe5c012ab9771d73937",
      "transactionType": "CALL",
      "contractName": null,
      "contractAddress": "0x514910771af9ca656af840dff83e8264ecf986ca",
      "function": "transfer(address,uint256)",
      "arguments": [
        "0xa2107FA5B38d9bbd2C461D6EDf11B11A50F6b974",
        "80000000000000000000"
      ],
      "transaction": {
        "from": "0x70997970c51812dc3a010c7d01b50e0d17dc79c8",
        "to": "0x514910771af9ca656af840dff83e8264ecf986ca",
        "gas": "0xbcc7",
        "value": "0x0",
        "input": "0xa9059cbb000000000000000000000000a2107fa5b38d9bbd2c461d6edf11b11a50f6b974000000000000000000000000000000000000000000000004563918244f400000",
        "nonce": "0xb9",
        "chainId": "0x1"
      },
      "additionalContracts": [],
      "isFixedGasLimit": false
    },
    {
      "hash": "0x20d0149161b693dcd13ca1cc1f3bcf676a00ae305dda1461f501168801227ee6",
      "transactionType": "CALL",
      "contractName": null,
      "contractAddress": "0xc02aaa39b223fe8d0a0e5c4f27ead9083c756cc2",
      "function": "transfer(address,uint256)",
      "arguments": [
        "0xa2107FA5B38d9bbd2C461D6EDf11B11A50F6b974",
        "5000000000000000000"
      ],
      "transaction": {
        "from": "0x70997970c51812dc3a010c7d01b50e0d17dc79c8",
        "to": "0xc02aaa39b223fe8d0a0e5c4f27ead9083c756cc2",
        "gas": "0xba1b",
        "value": "0x0",
        "input": "0xa9059cbb000000000000000000000000a2107fa5b38d9bbd2c461d6edf11b11a50f6b9740000000000000000000000000000000000000000000000004563918244f40000",
        "nonce": "0xba",
        "chainId": "0x1"
      },
      "additionalContracts": [],
      "isFixedGasLimit": false
    },
    {
      "hash": "0xd620cac34a2fcb677f2c30c0e394c231e69c4c0c4beef02c923cb0bcb9c96651",
      "transactionType": "CALL",
      "contractName": null,
      "contractAddress": "0x514910771af9ca656af840dff83e8264ecf986ca",
      "function": "transfer(address,uint256)",
      "arguments": [
        "0xC40D16476380e4037e6b1A2594cAF6a6cc8Da967",
        "80000000000000000000"
      ],
      "transaction": {
        "from": "0x70997970c51812dc3a010c7d01b50e0d17dc79c8",
        "to": "0x514910771af9ca656af840dff83e8264ecf986ca",
        "gas": "0xbcc7",
        "value": "0x0",
        "input": "0xa9059cbb000000000000000000000000c40d16476380e4037e6b1a2594caf6a6cc8da967000000000000000000000000000000000000000000000004563918244f400000",
        "nonce": "0xbb",
        "chainId": "0x1"
      },
      "additionalContracts": [],
      "isFixedGasLimit": false
    },
    {
      "hash": "0x9502219443dc27306424e681740eadf8f9a9e2772fc28ea7fce0c871745f1789",
      "transactionType": "CALL",
      "contractName": null,
      "contractAddress": "0xc02aaa39b223fe8d0a0e5c4f27ead9083c756cc2",
      "function": "transfer(address,uint256)",
      "arguments": [
        "0xC40D16476380e4037e6b1A2594cAF6a6cc8Da967",
        "20000000000000000000"
      ],
      "transaction": {
        "from": "0x70997970c51812dc3a010c7d01b50e0d17dc79c8",
        "to": "0xc02aaa39b223fe8d0a0e5c4f27ead9083c756cc2",
        "gas": "0xc520",
        "value": "0x0",
        "input": "0xa9059cbb000000000000000000000000c40d16476380e4037e6b1a2594caf6a6cc8da967000000000000000000000000000000000000000000000001158e460913d00000",
        "nonce": "0xbc",
        "chainId": "0x1"
      },
      "additionalContracts": [],
      "isFixedGasLimit": false
    },
    {
      "hash": "0xc22bfa0b1fdd1bfb19d497fed6df3c8ca044e7bca18f4ca969afe5ab199e6afb",
      "transactionType": "CALL",
      "contractName": null,
      "contractAddress": "0xa2107fa5b38d9bbd2c461d6edf11b11a50f6b974",
      "function": "sync()",
      "arguments": [],
      "transaction": {
        "from": "0x70997970c51812dc3a010c7d01b50e0d17dc79c8",
        "to": "0xa2107fa5b38d9bbd2c461d6edf11b11a50f6b974",
        "gas": "0x140fd",
        "value": "0x0",
        "input": "0xfff6cae9",
        "nonce": "0xbd",
        "chainId": "0x1"
      },
      "additionalContracts": [],
      "isFixedGasLimit": false
    },
    {
      "hash": "0x60de31929516e8aaf0f5f545a0308f4e728f66d9fa44bf0e9c77a58831f3465f",
      "transactionType": "CALL",
      "contractName": null,
      "contractAddress": "0xc40d16476380e4037e6b1a2594caf6a6cc8da967",
      "function": "sync()",
      "arguments": [],
      "transaction": {
        "from": "0x70997970c51812dc3a010c7d01b50e0d17dc79c8",
        "to": "0xc40d16476380e4037e6b1a2594caf6a6cc8da967",
        "gas": "0x130a4",
        "value": "0x0",
        "input": "0xfff6cae9",
        "nonce": "0xbe",
        "chainId": "0x1"
      },
      "additionalContracts": [],
      "isFixedGasLimit": false
    }
  ],
  "receipts": [
    {
      "status": "0x1",
      "cumulativeGasUsed": "0x88ad",
      "logs": [
        {
          "address": "0x514910771af9ca656af840dff83e8264ecf986ca",
          "topics": [
            "0xddf252ad1be2c89b69c2b068fc378daa952ba7f163c4a11628f55a4df523b3ef",
            "0x00000000000000000000000070997970c51812dc3a010c7d01b50e0d17dc79c8",
            "0x000000000000000000000000a2107fa5b38d9bbd2c461d6edf11b11a50f6b974"
          ],
          "data": "0x000000000000000000000000000000000000000000000004563918244f400000",
          "blockHash": "0xc10ccac07244759c55bee76ba4212b0a2ae5b44d7a702fa303fcc361fbeb518a",
          "blockNumber": "0x1572223",
          "blockTimestamp": "0x6825bfbf",
          "transactionHash": "0xf3f594733a879f8145d52ee8e3b7e025c15a66f65e84bfe5c012ab9771d73937",
          "transactionIndex": "0x0",
          "logIndex": "0x0",
          "removed": false
        }
      ],
      "logsBloom": "0x00800000000000000002000000001000000000000000000000000000000000000000000000000000000000000000000000000000000000000000002000000000000100000000000040000008000000000000000000000000000000000000000000000800000000000000000000000000000000000000000000000010000000000000000000000000000000000000000000000000000000000000000000000000000000000000000000000000000000000000000000000000000000000000000000000002000000000000000000000004000000000000000000000000000000000000000000000000000000000000000001000000000000000000000000000000",
      "type": "0x2",
      "transactionHash": "0xf3f594733a879f8145d52ee8e3b7e025c15a66f65e84bfe5c012ab9771d73937",
      "transactionIndex": "0x0",
      "blockHash": "0xc10ccac07244759c55bee76ba4212b0a2ae5b44d7a702fa303fcc361fbeb518a",
      "blockNumber": "0x1572223",
      "gasUsed": "0x88ad",
      "effectiveGasPrice": "0x1d3d31a9",
      "blobGasPrice": "0x1",
      "from": "0x70997970c51812dc3a010c7d01b50e0d17dc79c8",
      "to": "0x514910771af9ca656af840dff83e8264ecf986ca",
      "contractAddress": null
    },
    {
      "status": "0x1",
      "cumulativeGasUsed": "0x86be",
      "logs": [
        {
          "address": "0xc02aaa39b223fe8d0a0e5c4f27ead9083c756cc2",
          "topics": [
            "0xddf252ad1be2c89b69c2b068fc378daa952ba7f163c4a11628f55a4df523b3ef",
            "0x00000000000000000000000070997970c51812dc3a010c7d01b50e0d17dc79c8",
            "0x000000000000000000000000a2107fa5b38d9bbd2c461d6edf11b11a50f6b974"
          ],
          "data": "0x0000000000000000000000000000000000000000000000004563918244f40000",
          "blockHash": "0xcfeff0bcc2cb77a69d99fd67257f59426f9bdcad84d6ec5f68ca5212bdba1f1d",
          "blockNumber": "0x1572224",
          "blockTimestamp": "0x6825bfbf",
          "transactionHash": "0x20d0149161b693dcd13ca1cc1f3bcf676a00ae305dda1461f501168801227ee6",
          "transactionIndex": "0x0",
          "logIndex": "0x0",
          "removed": false
        }
      ],
      "logsBloom": "0x00800000000000000002000000000000000000000000000000000000000000000000000000000000000000000000000002000000080000000000002000000000000100000000000000000008000000000000000000000000000000000000000000000800000000000000000000000000000000000000000000000010000000000000000000000000000000000000000000000000000000000000000000000000000000000000000000000000000000000000000000000000000000000000000000000002000000000000000000000000000000000000000000000000000000000000200000000000000000000000000001000000000000000000000000000000",
      "type": "0x2",
      "transactionHash": "0x20d0149161b693dcd13ca1cc1f3bcf676a00ae305dda1461f501168801227ee6",
      "transactionIndex": "0x0",
      "blockHash": "0xcfeff0bcc2cb77a69d99fd67257f59426f9bdcad84d6ec5f68ca5212bdba1f1d",
      "blockNumber": "0x1572224",
      "gasUsed": "0x86be",
      "effectiveGasPrice": "0x19f68ba9",
      "blobGasPrice": "0x1",
      "from": "0x70997970c51812dc3a010c7d01b50e0d17dc79c8",
      "to": "0xc02aaa39b223fe8d0a0e5c4f27ead9083c756cc2",
      "contractAddress": null
    },
    {
      "status": "0x1",
      "cumulativeGasUsed": "0x10f6b",
      "logs": [
        {
          "address": "0x514910771af9ca656af840dff83e8264ecf986ca",
          "topics": [
            "0xddf252ad1be2c89b69c2b068fc378daa952ba7f163c4a11628f55a4df523b3ef",
            "0x00000000000000000000000070997970c51812dc3a010c7d01b50e0d17dc79c8",
            "0x000000000000000000000000c40d16476380e4037e6b1a2594caf6a6cc8da967"
          ],
          "data": "0x000000000000000000000000000000000000000000000004563918244f400000",
          "blockHash": "0xcfeff0bcc2cb77a69d99fd67257f59426f9bdcad84d6ec5f68ca5212bdba1f1d",
          "blockNumber": "0x1572224",
          "blockTimestamp": "0x6825bfbf",
          "transactionHash": "0xd620cac34a2fcb677f2c30c0e394c231e69c4c0c4beef02c923cb0bcb9c96651",
          "transactionIndex": "0x1",
          "logIndex": "0x1",
          "removed": false
        }
      ],
      "logsBloom": "0x00000000000000000002000000001000000000000000000000000000000000000000000000000000000000000000000000000000000000000000000000000000000000000000000040000008000000000000000000000000000000000000000000000800000000000000000000000000000000000000000000000010000000000000000000000000400000000000000000000000000000000000000000000020000000000000000000000000000000000000000000000000000000000000000000000002000000000000000000000004000000800000000000000000000000000000000000000000000000000000000001000000000000000000000000000000",
      "type": "0x2",
      "transactionHash": "0xd620cac34a2fcb677f2c30c0e394c231e69c4c0c4beef02c923cb0bcb9c96651",
      "transactionIndex": "0x1",
      "blockHash": "0xcfeff0bcc2cb77a69d99fd67257f59426f9bdcad84d6ec5f68ca5212bdba1f1d",
      "blockNumber": "0x1572224",
      "gasUsed": "0x88ad",
      "effectiveGasPrice": "0x19f68ba9",
      "blobGasPrice": "0x1",
      "from": "0x70997970c51812dc3a010c7d01b50e0d17dc79c8",
      "to": "0x514910771af9ca656af840dff83e8264ecf986ca",
      "contractAddress": null
    },
    {
      "status": "0x1",
      "cumulativeGasUsed": "0x86ca",
      "logs": [
        {
          "address": "0xc02aaa39b223fe8d0a0e5c4f27ead9083c756cc2",
          "topics": [
            "0xddf252ad1be2c89b69c2b068fc378daa952ba7f163c4a11628f55a4df523b3ef",
            "0x00000000000000000000000070997970c51812dc3a010c7d01b50e0d17dc79c8",
            "0x000000000000000000000000c40d16476380e4037e6b1a2594caf6a6cc8da967"
          ],
          "data": "0x000000000000000000000000000000000000000000000001158e460913d00000",
          "blockHash": "0x8319606a5dac6aee9d796ac04da90d5c0b58be3357f4caf39eee1431f8001aa3",
          "blockNumber": "0x1572225",
          "blockTimestamp": "0x6825bfbf",
          "transactionHash": "0x9502219443dc27306424e681740eadf8f9a9e2772fc28ea7fce0c871745f1789",
          "transactionIndex": "0x0",
          "logIndex": "0x0",
          "removed": false
        }
      ],
      "logsBloom": "0x00000000000000000002000000000000000000000000000000000000000000000000000000000000000000000000000002000000080000000000000000000000000000000000000000000008000000000000000000000000000000000000000000000800000000000000000000000000000000000000000000000010000000000000000000000000400000000000000000000000000000000000000000000020000000000000000000000000000000000000000000000000000000000000000000000002000000000000000000000000000000800000000000000000000000000000200000000000000000000000000001000000000000000000000000000000",
      "type": "0x2",
      "transactionHash": "0x9502219443dc27306424e681740eadf8f9a9e2772fc28ea7fce0c871745f1789",
      "transactionIndex": "0x0",
      "blockHash": "0x8319606a5dac6aee9d796ac04da90d5c0b58be3357f4caf39eee1431f8001aa3",
      "blockNumber": "0x1572225",
      "gasUsed": "0x86ca",
      "effectiveGasPrice": "0x1719ef0b",
      "blobGasPrice": "0x1",
      "from": "0x70997970c51812dc3a010c7d01b50e0d17dc79c8",
      "to": "0xc02aaa39b223fe8d0a0e5c4f27ead9083c756cc2",
      "contractAddress": null
    },
    {
      "status": "0x1",
      "cumulativeGasUsed": "0xdb7b",
      "logs": [
        {
          "address": "0xa2107fa5b38d9bbd2c461d6edf11b11a50f6b974",
          "topics": [
            "0x1c411e9a96e071241c2f21f7726b17ae89e3cab4c78be50e062b03a9fffbbad1"
          ],
          "data": "0x000000000000000000000000000000000000000000000bde8519beffa280a28a000000000000000000000000000000000000000000000013ccdb0fdc9bb8bc8b",
          "blockHash": "0x8f0363a072066e7eaaacc883fa1a7a19099f3c638fe8f41793915b997931cf88",
          "blockNumber": "0x1572226",
          "blockTimestamp": "0x6825bfbf",
          "transactionHash": "0xc22bfa0b1fdd1bfb19d497fed6df3c8ca044e7bca18f4ca969afe5ab199e6afb",
          "transactionIndex": "0x0",
          "logIndex": "0x0",
          "removed": false
        }
      ],
      "logsBloom": "0x00000000200000000000000080000000000000000000000000000000000000000000000000000000000000000000000000000000000000000000000000000000000000000000000000000000000000001000000000000000000000000000000000000000000000000000000000000000000000000000000000000000000000000000000000000000000000000000000000000000000000080000000000000010000000000000000000000000000000000000000000000000000000000000000000000000000000000000000000000000000000000000001000000000000000000000000000000000000000000000000000000000000000000000000000000000",
      "type": "0x2",
      "transactionHash": "0xc22bfa0b1fdd1bfb19d497fed6df3c8ca044e7bca18f4ca969afe5ab199e6afb",
      "transactionIndex": "0x0",
      "blockHash": "0x8f0363a072066e7eaaacc883fa1a7a19099f3c638fe8f41793915b997931cf88",
      "blockNumber": "0x1572226",
      "gasUsed": "0xdb7b",
      "effectiveGasPrice": "0x14974b36",
      "blobGasPrice": "0x1",
      "from": "0x70997970c51812dc3a010c7d01b50e0d17dc79c8",
      "to": "0xa2107fa5b38d9bbd2c461d6edf11b11a50f6b974",
      "contractAddress": null
    },
    {
      "status": "0x1",
      "cumulativeGasUsed": "0x1b80a",
      "logs": [
        {
          "address": "0xc40d16476380e4037e6b1a2594caf6a6cc8da967",
          "topics": [
            "0x1c411e9a96e071241c2f21f7726b17ae89e3cab4c78be50e062b03a9fffbbad1"
          ],
          "data": "0x000000000000000000000000000000000000000000000aa0ab4e29a97050d00100000000000000000000000000000000000000000000001292d0547ec96d6c79",
          "blockHash": "0x8f0363a072066e7eaaacc883fa1a7a19099f3c638fe8f41793915b997931cf88",
          "blockNumber": "0x1572226",
          "blockTimestamp": "0x6825bfbf",
          "transactionHash": "0x60de31929516e8aaf0f5f545a0308f4e728f66d9fa44bf0e9c77a58831f3465f",
          "transactionIndex": "0x1",
          "logIndex": "0x1",
          "removed": false
        }
      ],
      "logsBloom": "0x00000000000000000000000080000000000000000000000000000000000000000000000000000000000000000000000000000000000000000000000000000000000000000000000000000000000000000000000000000000000000000000000000000000000000000000000000000000000000000000000000000000000000000000000000000000000000000000000000000000000000080000000000000000000000000001000000000000000000000000000000000000000000000000000000000000000000000000000000000000000000000000001000000000000000000000000000000000000000000200080000000000000000000000000000000000",
      "type": "0x2",
      "transactionHash": "0x60de31929516e8aaf0f5f545a0308f4e728f66d9fa44bf0e9c77a58831f3465f",
      "transactionIndex": "0x1",
      "blockHash": "0x8f0363a072066e7eaaacc883fa1a7a19099f3c638fe8f41793915b997931cf88",
      "blockNumber": "0x1572226",
      "gasUsed": "0xdc8f",
      "effectiveGasPrice": "0x14974b36",
      "blobGasPrice": "0x1",
      "from": "0x70997970c51812dc3a010c7d01b50e0d17dc79c8",
      "to": "0xc40d16476380e4037e6b1a2594caf6a6cc8da967",
      "contractAddress": null
    }
  ],
  "libraries": [
    "script/Utils.sol:Utils:0x80B8386eA7150e4421A5fA70470C107D119BdbE0"
  ],
  "pending": [],
  "returns": {},
  "timestamp": 1747306485,
  "chain": 1,
  "commit": "b014251"
}