{
  "transactions": [
    {
      "hash": null,
      "transactionType": "CALL",
      "contractName": null,
      "contractAddress": "0x514910771af9ca656af840dff83e8264ecf986ca",
      "function": "transfer(address,uint256)",
      "arguments": [
        "0xa2107FA5B38d9bbd2C461D6EDf11B11A50F6b974",
        "80000000000000000000"
      ],
      "transaction": {
        "from": "0x70997970c51812dc3a010c7d01b50e0d17dc79c8",
        "to": "0x514910771af9ca656af840dff83e8264ecf986ca",
        "gas": "0xbcc7",
        "value": "0x0",
        "input": "0xa9059cbb000000000000000000000000a2107fa5b38d9bbd2c461d6edf11b11a50f6b974000000000000000000000000000000000000000000000004563918244f400000",
        "nonce": "0xb9",
        "chainId": "0x1"
      },
      "additionalContracts": [],
      "isFixedGasLimit": false
    },
    {
      "hash": null,
      "transactionType": "CALL",
      "contractName": null,
      "contractAddress": "0xc02aaa39b223fe8d0a0e5c4f27ead9083c756cc2",
      "function": "transfer(address,uint256)",
      "arguments": [
        "0xa2107FA5B38d9bbd2C461D6EDf11B11A50F6b974",
        "5000000000000000000"
      ],
      "transaction": {
        "from": "0x70997970c51812dc3a010c7d01b50e0d17dc79c8",
        "to": "0xc02aaa39b223fe8d0a0e5c4f27ead9083c756cc2",
        "gas": "0xba1b",
        "value": "0x0",
        "input": "0xa9059cbb000000000000000000000000a2107fa5b38d9bbd2c461d6edf11b11a50f6b9740000000000000000000000000000000000000000000000004563918244f40000",
        "nonce": "0xba",
        "chainId": "0x1"
      },
      "additionalContracts": [],
      "isFixedGasLimit": false
    },
    {
      "hash": null,
      "transactionType": "CALL",
      "contractName": null,
      "contractAddress": "0x514910771af9ca656af840dff83e8264ecf986ca",
      "function": "transfer(address,uint256)",
      "arguments": [
        "0xC40D16476380e4037e6b1A2594cAF6a6cc8Da967",
        "80000000000000000000"
      ],
      "transaction": {
        "from": "0x70997970c51812dc3a010c7d01b50e0d17dc79c8",
        "to": "0x514910771af9ca656af840dff83e8264ecf986ca",
        "gas": "0xbcc7",
        "value": "0x0",
        "input": "0xa9059cbb000000000000000000000000c40d16476380e4037e6b1a2594caf6a6cc8da967000000000000000000000000000000000000000000000004563918244f400000",
        "nonce": "0xbb",
        "chainId": "0x1"
      },
      "additionalContracts": [],
      "isFixedGasLimit": false
    },
    {
      "hash": null,
      "transactionType": "CALL",
      "contractName": null,
      "contractAddress": "0xc02aaa39b223fe8d0a0e5c4f27ead9083c756cc2",
      "function": "transfer(address,uint256)",
      "arguments": [
        "0xC40D16476380e4037e6b1A2594cAF6a6cc8Da967",
        "20000000000000000000"
      ],
      "transaction": {
        "from": "0x70997970c51812dc3a010c7d01b50e0d17dc79c8",
        "to": "0xc02aaa39b223fe8d0a0e5c4f27ead9083c756cc2",
        "gas": "0xc520",
        "value": "0x0",
        "input": "0xa9059cbb000000000000000000000000c40d16476380e4037e6b1a2594caf6a6cc8da967000000000000000000000000000000000000000000000001158e460913d00000",
        "nonce": "0xbc",
        "chainId": "0x1"
      },
      "additionalContracts": [],
      "isFixedGasLimit": false
    },
    {
      "hash": null,
      "transactionType": "CALL",
      "contractName": null,
      "contractAddress": "0xa2107fa5b38d9bbd2c461d6edf11b11a50f6b974",
      "function": "sync()",
      "arguments": [],
      "transaction": {
        "from": "0x70997970c51812dc3a010c7d01b50e0d17dc79c8",
        "to": "0xa2107fa5b38d9bbd2c461d6edf11b11a50f6b974",
        "gas": "0x140fd",
        "value": "0x0",
        "input": "0xfff6cae9",
        "nonce": "0xbd",
        "chainId": "0x1"
      },
      "additionalContracts": [],
      "isFixedGasLimit": false
    },
    {
      "hash": null,
      "transactionType": "CALL",
      "contractName": null,
      "contractAddress": "0xc40d16476380e4037e6b1a2594caf6a6cc8da967",
      "function": "sync()",
      "arguments": [],
      "transaction": {
        "from": "0x70997970c51812dc3a010c7d01b50e0d17dc79c8",
        "to": "0xc40d16476380e4037e6b1a2594caf6a6cc8da967",
        "gas": "0x130a4",
        "value": "0x0",
        "input": "0xfff6cae9",
        "nonce": "0xbe",
        "chainId": "0x1"
      },
      "additionalContracts": [],
      "isFixedGasLimit": false
    }
  ],
  "receipts": [],
  "libraries": [
    "script/Utils.sol:Utils:0x80B8386eA7150e4421A5fA70470C107D119BdbE0"
  ],
  "pending": [],
  "returns": {},
  "timestamp": 1747306386,
  "chain": 1,
  "commit": "b014251"
}