{
  "transactions": [
    {
      "hash": "0x6ebe919a7f7d33583e3237467a24eecc54ea61c436dbf432c8265a282e500d02",
      "transactionType": "CALL",
      "contractName": null,
      "contractAddress": "0x514910771af9ca656af840dff83e8264ecf986ca",
      "function": "transfer(address,uint256)",
      "arguments": [
        "0xa2107FA5B38d9bbd2C461D6EDf11B11A50F6b974",
        "10000000000000000000000"
      ],
      "transaction": {
        "from": "0x70997970c51812dc3a010c7d01b50e0d17dc79c8",
        "to": "0x514910771af9ca656af840dff83e8264ecf986ca",
        "gas": "0xc7f4",
        "value": "0x0",
        "input": "0xa9059cbb000000000000000000000000a2107fa5b38d9bbd2c461d6edf11b11a50f6b97400000000000000000000000000000000000000000000021e19e0c9bab2400000",
        "nonce": "0xbf",
        "chainId": "0x1"
      },
      "additionalContracts": [],
      "isFixedGasLimit": false
    },
    {
      "hash": "0x5dbe1084e810befb0691c29973c04213aae4787300f7a16fe107c388154bc46b",
      "transactionType": "CALL",
      "contractName": null,
      "contractAddress": "0xc02aaa39b223fe8d0a0e5c4f27ead9083c756cc2",
      "function": "transfer(address,uint256)",
      "arguments": [
        "0xa2107FA5B38d9bbd2C461D6EDf11B11A50F6b974",
        "5000000000000000000"
      ],
      "transaction": {
        "from": "0x70997970c51812dc3a010c7d01b50e0d17dc79c8",
        "to": "0xc02aaa39b223fe8d0a0e5c4f27ead9083c756cc2",
        "gas": "0xba1b",
        "value": "0x0",
        "input": "0xa9059cbb000000000000000000000000a2107fa5b38d9bbd2c461d6edf11b11a50f6b9740000000000000000000000000000000000000000000000004563918244f40000",
        "nonce": "0xc0",
        "chainId": "0x1"
      },
      "additionalContracts": [],
      "isFixedGasLimit": false
    },
    {
      "hash": "0xc2f9296da0bf4945d58a2ac410b1747c6017214a2ea5b38e0a2eac39d61302a3",
      "transactionType": "CALL",
      "contractName": null,
      "contractAddress": "0x514910771af9ca656af840dff83e8264ecf986ca",
      "function": "transfer(address,uint256)",
      "arguments": [
        "0xC40D16476380e4037e6b1A2594cAF6a6cc8Da967",
        "80000000000000000000"
      ],
      "transaction": {
        "from": "0x70997970c51812dc3a010c7d01b50e0d17dc79c8",
        "to": "0x514910771af9ca656af840dff83e8264ecf986ca",
        "gas": "0xbcc7",
        "value": "0x0",
        "input": "0xa9059cbb000000000000000000000000c40d16476380e4037e6b1a2594caf6a6cc8da967000000000000000000000000000000000000000000000004563918244f400000",
        "nonce": "0xc1",
        "chainId": "0x1"
      },
      "additionalContracts": [],
      "isFixedGasLimit": false
    },
    {
      "hash": "0x70a10273e3c6a6f7ab641e0150617a470c3f69f6c068da1ef5cc20fb4a5a4a1f",
      "transactionType": "CALL",
      "contractName": null,
      "contractAddress": "0xc02aaa39b223fe8d0a0e5c4f27ead9083c756cc2",
      "function": "transfer(address,uint256)",
      "arguments": [
        "0xC40D16476380e4037e6b1A2594cAF6a6cc8Da967",
        "10000000000000000000000"
      ],
      "transaction": {
        "from": "0x70997970c51812dc3a010c7d01b50e0d17dc79c8",
        "to": "0xc02aaa39b223fe8d0a0e5c4f27ead9083c756cc2",
        "gas": "0xba3d",
        "value": "0x0",
        "input": "0xa9059cbb000000000000000000000000c40d16476380e4037e6b1a2594caf6a6cc8da96700000000000000000000000000000000000000000000021e19e0c9bab2400000",
        "nonce": "0xc2",
        "chainId": "0x1"
      },
      "additionalContracts": [],
      "isFixedGasLimit": false
    },
    {
      "hash": "0xa5f89b46adec6fbe8edf0d00eb9ee021cfbcc2c13de951a9668f14c78f5217af",
      "transactionType": "CALL",
      "contractName": null,
      "contractAddress": "0xa2107fa5b38d9bbd2c461d6edf11b11a50f6b974",
      "function": "sync()",
      "arguments": [],
      "transaction": {
        "from": "0x70997970c51812dc3a010c7d01b50e0d17dc79c8",
        "to": "0xa2107fa5b38d9bbd2c461d6edf11b11a50f6b974",
        "gas": "0x140fd",
        "value": "0x0",
        "input": "0xfff6cae9",
        "nonce": "0xc3",
        "chainId": "0x1"
      },
      "additionalContracts": [],
      "isFixedGasLimit": false
    },
    {
      "hash": "0xc6749511e1d616830b3080d7fd5c63229bf3dd414b884a5820310501137e2274",
      "transactionType": "CALL",
      "contractName": null,
      "contractAddress": "0xc40d16476380e4037e6b1a2594caf6a6cc8da967",
      "function": "sync()",
      "arguments": [],
      "transaction": {
        "from": "0x70997970c51812dc3a010c7d01b50e0d17dc79c8",
        "to": "0xc40d16476380e4037e6b1a2594caf6a6cc8da967",
        "gas": "0x130a4",
        "value": "0x0",
        "input": "0xfff6cae9",
        "nonce": "0xc4",
        "chainId": "0x1"
      },
      "additionalContracts": [],
      "isFixedGasLimit": false
    }
  ],
  "receipts": [
    {
      "status": "0x1",
      "cumulativeGasUsed": "0x88b9",
      "logs": [
        {
          "address": "0x514910771af9ca656af840dff83e8264ecf986ca",
          "topics": [
            "0xddf252ad1be2c89b69c2b068fc378daa952ba7f163c4a11628f55a4df523b3ef",
            "0x00000000000000000000000070997970c51812dc3a010c7d01b50e0d17dc79c8",
            "0x000000000000000000000000a2107fa5b38d9bbd2c461d6edf11b11a50f6b974"
          ],
          "data": "0x00000000000000000000000000000000000000000000021e19e0c9bab2400000",
          "blockHash": "0x6cd9412fb0542249a04c12e8fdddd9e3d3db675573d2af198ddf32b7fcff45ce",
          "blockNumber": "0x1572229",
          "blockTimestamp": "0x6825c011",
          "transactionHash": "0x6ebe919a7f7d33583e3237467a24eecc54ea61c436dbf432c8265a282e500d02",
          "transactionIndex": "0x0",
          "logIndex": "0x0",
          "removed": false
        }
      ],
      "logsBloom": "0x00800000000000000002000000001000000000000000000000000000000000000000000000000000000000000000000000000000000000000000002000000000000100000000000040000008000000000000000000000000000000000000000000000800000000000000000000000000000000000000000000000010000000000000000000000000000000000000000000000000000000000000000000000000000000000000000000000000000000000000000000000000000000000000000000000002000000000000000000000004000000000000000000000000000000000000000000000000000000000000000001000000000000000000000000000000",
      "type": "0x2",
      "transactionHash": "0x6ebe919a7f7d33583e3237467a24eecc54ea61c436dbf432c8265a282e500d02",
      "transactionIndex": "0x0",
      "blockHash": "0x6cd9412fb0542249a04c12e8fdddd9e3d3db675573d2af198ddf32b7fcff45ce",
      "blockNumber": "0x1572229",
      "gasUsed": "0x88b9",
      "effectiveGasPrice": "0xecb8d92",
      "blobGasPrice": "0x1",
      "from": "0x70997970c51812dc3a010c7d01b50e0d17dc79c8",
      "to": "0x514910771af9ca656af840dff83e8264ecf986ca",
      "contractAddress": null
    },
    {
      "status": "0x1",
      "cumulativeGasUsed": "0x86be",
      "logs": [
        {
          "address": "0xc02aaa39b223fe8d0a0e5c4f27ead9083c756cc2",
          "topics": [
            "0xddf252ad1be2c89b69c2b068fc378daa952ba7f163c4a11628f55a4df523b3ef",
            "0x00000000000000000000000070997970c51812dc3a010c7d01b50e0d17dc79c8",
            "0x000000000000000000000000a2107fa5b38d9bbd2c461d6edf11b11a50f6b974"
          ],
          "data": "0x0000000000000000000000000000000000000000000000004563918244f40000",
          "blockHash": "0x11fccbff3f9b69de204cf89a13589a209243b76aeccad2d09afc47dc8db837eb",
          "blockNumber": "0x157222a",
          "blockTimestamp": "0x6825c011",
          "transactionHash": "0x5dbe1084e810befb0691c29973c04213aae4787300f7a16fe107c388154bc46b",
          "transactionIndex": "0x0",
          "logIndex": "0x0",
          "removed": false
        }
      ],
      "logsBloom": "0x00800000000000000002000000000000000000000000000000000000000000000000000000000000000000000000000002000000080000000000002000000000000100000000000000000008000000000000000000000000000000000000000000000800000000000000000000000000000000000000000000000010000000000000000000000000000000000000000000000000000000000000000000000000000000000000000000000000000000000000000000000000000000000000000000000002000000000000000000000000000000000000000000000000000000000000200000000000000000000000000001000000000000000000000000000000",
      "type": "0x2",
      "transactionHash": "0x5dbe1084e810befb0691c29973c04213aae4787300f7a16fe107c388154bc46b",
      "transactionIndex": "0x0",
      "blockHash": "0x11fccbff3f9b69de204cf89a13589a209243b76aeccad2d09afc47dc8db837eb",
      "blockNumber": "0x157222a",
      "gasUsed": "0x86be",
      "effectiveGasPrice": "0xd523624",
      "blobGasPrice": "0x1",
      "from": "0x70997970c51812dc3a010c7d01b50e0d17dc79c8",
      "to": "0xc02aaa39b223fe8d0a0e5c4f27ead9083c756cc2",
      "contractAddress": null
    },
    {
      "status": "0x1",
      "cumulativeGasUsed": "0x88ad",
      "logs": [
        {
          "address": "0x514910771af9ca656af840dff83e8264ecf986ca",
          "topics": [
            "0xddf252ad1be2c89b69c2b068fc378daa952ba7f163c4a11628f55a4df523b3ef",
            "0x00000000000000000000000070997970c51812dc3a010c7d01b50e0d17dc79c8",
            "0x000000000000000000000000c40d16476380e4037e6b1a2594caf6a6cc8da967"
          ],
          "data": "0x000000000000000000000000000000000000000000000004563918244f400000",
          "blockHash": "0x04b5a5c488ab2e1194e6e7811fa7637a4e9241e2177f4cda4215113f076d3dd1",
          "blockNumber": "0x157222b",
          "blockTimestamp": "0x6825c011",
          "transactionHash": "0xc2f9296da0bf4945d58a2ac410b1747c6017214a2ea5b38e0a2eac39d61302a3",
          "transactionIndex": "0x0",
          "logIndex": "0x0",
          "removed": false
        }
      ],
      "logsBloom": "0x00000000000000000002000000001000000000000000000000000000000000000000000000000000000000000000000000000000000000000000000000000000000000000000000040000008000000000000000000000000000000000000000000000800000000000000000000000000000000000000000000000010000000000000000000000000400000000000000000000000000000000000000000000020000000000000000000000000000000000000000000000000000000000000000000000002000000000000000000000004000000800000000000000000000000000000000000000000000000000000000001000000000000000000000000000000",
      "type": "0x2",
      "transactionHash": "0xc2f9296da0bf4945d58a2ac410b1747c6017214a2ea5b38e0a2eac39d61302a3",
      "transactionIndex": "0x0",
      "blockHash": "0x04b5a5c488ab2e1194e6e7811fa7637a4e9241e2177f4cda4215113f076d3dd1",
      "blockNumber": "0x157222b",
      "gasUsed": "0x88ad",
      "effectiveGasPrice": "0xc07efc6",
      "blobGasPrice": "0x1",
      "from": "0x70997970c51812dc3a010c7d01b50e0d17dc79c8",
      "to": "0x514910771af9ca656af840dff83e8264ecf986ca",
      "contractAddress": null
    },
    {
      "status": "0x1",
      "cumulativeGasUsed": "0x10f83",
      "logs": [
        {
          "address": "0xc02aaa39b223fe8d0a0e5c4f27ead9083c756cc2",
          "topics": [
            "0xddf252ad1be2c89b69c2b068fc378daa952ba7f163c4a11628f55a4df523b3ef",
            "0x00000000000000000000000070997970c51812dc3a010c7d01b50e0d17dc79c8",
            "0x000000000000000000000000c40d16476380e4037e6b1a2594caf6a6cc8da967"
          ],
          "data": "0x00000000000000000000000000000000000000000000021e19e0c9bab2400000",
          "blockHash": "0x04b5a5c488ab2e1194e6e7811fa7637a4e9241e2177f4cda4215113f076d3dd1",
          "blockNumber": "0x157222b",
          "blockTimestamp": "0x6825c011",
          "transactionHash": "0x70a10273e3c6a6f7ab641e0150617a470c3f69f6c068da1ef5cc20fb4a5a4a1f",
          "transactionIndex": "0x1",
          "logIndex": "0x1",
          "removed": false
        }
      ],
      "logsBloom": "0x00000000000000000002000000000000000000000000000000000000000000000000000000000000000000000000000002000000080000000000000000000000000000000000000000000008000000000000000000000000000000000000000000000800000000000000000000000000000000000000000000000010000000000000000000000000400000000000000000000000000000000000000000000020000000000000000000000000000000000000000000000000000000000000000000000002000000000000000000000000000000800000000000000000000000000000200000000000000000000000000001000000000000000000000000000000",
      "type": "0x2",
      "transactionHash": "0x70a10273e3c6a6f7ab641e0150617a470c3f69f6c068da1ef5cc20fb4a5a4a1f",
      "transactionIndex": "0x1",
      "blockHash": "0x04b5a5c488ab2e1194e6e7811fa7637a4e9241e2177f4cda4215113f076d3dd1",
      "blockNumber": "0x157222b",
      "gasUsed": "0x86d6",
      "effectiveGasPrice": "0xc07efc6",
      "blobGasPrice": "0x1",
      "from": "0x70997970c51812dc3a010c7d01b50e0d17dc79c8",
      "to": "0xc02aaa39b223fe8d0a0e5c4f27ead9083c756cc2",
      "contractAddress": null
    },
    {
      "status": "0x1",
      "cumulativeGasUsed": "0xdb7b",
      "logs": [
        {
          "address": "0xa2107fa5b38d9bbd2c461d6edf11b11a50f6b974",
          "topics": [
            "0x1c411e9a96e071241c2f21f7726b17ae89e3cab4c78be50e062b03a9fffbbad1"
          ],
          "data": "0x000000000000000000000000000000000000000000000dfc9efa88ba54c0a28a000000000000000000000000000000000000000000000014123ea15ee0acbc8b",
          "blockHash": "0x1e214d88f4c90c559104627d155cc1c85353669708924845f69cb0d39ffbdd36",
          "blockNumber": "0x157222c",
          "blockTimestamp": "0x6825c011",
          "transactionHash": "0xa5f89b46adec6fbe8edf0d00eb9ee021cfbcc2c13de951a9668f14c78f5217af",
          "transactionIndex": "0x0",
          "logIndex": "0x0",
          "removed": false
        }
      ],
      "logsBloom": "0x00000000200000000000000080000000000000000000000000000000000000000000000000000000000000000000000000000000000000000000000000000000000000000000000000000000000000001000000000000000000000000000000000000000000000000000000000000000000000000000000000000000000000000000000000000000000000000000000000000000000000080000000000000010000000000000000000000000000000000000000000000000000000000000000000000000000000000000000000000000000000000000001000000000000000000000000000000000000000000000000000000000000000000000000000000000",
      "type": "0x2",
      "transactionHash": "0xa5f89b46adec6fbe8edf0d00eb9ee021cfbcc2c13de951a9668f14c78f5217af",
      "transactionIndex": "0x0",
      "blockHash": "0x1e214d88f4c90c559104627d155cc1c85353669708924845f69cb0d39ffbdd36",
      "blockNumber": "0x157222c",
      "gasUsed": "0xdb7b",
      "effectiveGasPrice": "0xae76e2c",
      "blobGasPrice": "0x1",
      "from": "0x70997970c51812dc3a010c7d01b50e0d17dc79c8",
      "to": "0xa2107fa5b38d9bbd2c461d6edf11b11a50f6b974",
      "contractAddress": null
    },
    {
      "status": "0x1",
      "cumulativeGasUsed": "0x1b80a",
      "logs": [
        {
          "address": "0xc40d16476380e4037e6b1a2594caf6a6cc8da967",
          "topics": [
            "0x1c411e9a96e071241c2f21f7726b17ae89e3cab4c78be50e062b03a9fffbbad1"
          ],
          "data": "0x000000000000000000000000000000000000000000000aa5018741cdbf90d001000000000000000000000000000000000000000000000230acb11e397bad6c79",
          "blockHash": "0x1e214d88f4c90c559104627d155cc1c85353669708924845f69cb0d39ffbdd36",
          "blockNumber": "0x157222c",
          "blockTimestamp": "0x6825c011",
          "transactionHash": "0xc6749511e1d616830b3080d7fd5c63229bf3dd414b884a5820310501137e2274",
          "transactionIndex": "0x1",
          "logIndex": "0x1",
          "removed": false
        }
      ],
      "logsBloom": "0x00000000000000000000000080000000000000000000000000000000000000000000000000000000000000000000000000000000000000000000000000000000000000000000000000000000000000000000000000000000000000000000000000000000000000000000000000000000000000000000000000000000000000000000000000000000000000000000000000000000000000080000000000000000000000000001000000000000000000000000000000000000000000000000000000000000000000000000000000000000000000000000001000000000000000000000000000000000000000000200080000000000000000000000000000000000",
      "type": "0x2",
      "transactionHash": "0xc6749511e1d616830b3080d7fd5c63229bf3dd414b884a5820310501137e2274",
      "transactionIndex": "0x1",
      "blockHash": "0x1e214d88f4c90c559104627d155cc1c85353669708924845f69cb0d39ffbdd36",
      "blockNumber": "0x157222c",
      "gasUsed": "0xdc8f",
      "effectiveGasPrice": "0xae76e2c",
      "blobGasPrice": "0x1",
      "from": "0x70997970c51812dc3a010c7d01b50e0d17dc79c8",
      "to": "0xc40d16476380e4037e6b1a2594caf6a6cc8da967",
      "contractAddress": null
    }
  ],
  "libraries": [
    "script/Utils.sol:Utils:0x80B8386eA7150e4421A5fA70470C107D119BdbE0"
  ],
  "pending": [],
  "returns": {},
  "timestamp": 1747306567,
  "chain": 1,
  "commit": "b014251"
}